:100000000C942A000C94E7010C9410020C94470005
:100010000C9447000C9447000C9447000C94470044
:100020000C9447000C9447000C9454010C947D01EF
:100030000C9447000C9447000C9447000C94470024
:100040000C9447000C9447000C9447000C94470014
:100050000C94470011241FBECFE5D8E0DEBFCDBF12
:1000600010E0A0E6B0E0E8E4F4E102C005900D92F3
:10007000AA3AB107D9F710E0AAEAB0E001C01D9290
:10008000A93BB107E1F70E94D4080C94220A0C9412
:100090000000529886E880BD88E689B9539A549A40
:1000A00008955D9BFECF8CB908955F9BFECF8CB108
:1000B000089520E004C05D9BFECFECB92F5FFC01EA
:1000C000E20FF11DE081EE23B1F70895AC0120E0CD
:1000D0005F9BFECF8CB1FA01E20FF11D80838A3065
:1000E00011F02F5FF5CF0895982F86B7806486BFF3
:1000F00086B78E7F86BF089809988CE080B99923CF
:1001000011F481E0089582B1817082B982B1990FB2
:10011000892B82B986B7846086BF80E00895982FC6
:1001200086B7806486BF86B78E7F86BF8CE080B935
:10013000992311F481E0089582B1817082B982B16E
:10014000990F892B82B986B7846086BF80E00895B5
:1001500086B7806286BF86B7806886BF06B607FE10
:10016000FDCF81B1887F883011F480E0089582E06E
:10017000089596B79F7D96BF880F83B986B780682C
:1001800086BF06B607FEFDCF81B1887F883111F4A6
:1001900080E0089583E0089596B79F7D96BF880F0D
:1001A000816083B986B7806886BF06B607FEFDCF3B
:1001B00081B1887F803411F480E0089584E008954F
:1001C00083B986B7806886BF06B607FEFDCF81B1CA
:1001D000887F883211F480E0089585E00895FC015D
:1001E00086B7806886BF06B607FEFDCF81B1887FDF
:1001F000803511F086E0089583B1808380E0089512
:1002000086B7806186BF86B7806886BF06B607FE60
:10021000FDCF80E0089583B7877F83BF83B78F7B4F
:1002200083BF83B7816083BF83B78D7F83BF83B76D
:10023000846083BF089582BF08958CBF08959C0198
:10024000009751F08091AA009091AB00892B21F486
:100250003093AB002093AA0008959C01009751F0C1
:100260008091AC009091AD00892B21F43093AD00CA
:100270002093AC000895853678F46FEF869FB00127
:100280001124882777FD8095982F24E630E040E000
:1002900050E00E94000A2CBF089583B78E7F83BF71
:1002A00083B78D7F83BF08951F920F920FB60F9271
:1002B00011242F933F934F935F936F937F938F936B
:1002C0009F93AF93BF93EF93FF93E091AC00F091B6
:1002D000AD00309709F00995FF91EF91BF91AF9173
:1002E0009F918F917F916F915F914F913F912F914E
:1002F0000F900FBE0F901F9018951F920F920FB680
:100300000F9211242F933F934F935F936F937F939B
:100310008F939F93AF93BF93EF93FF93E091AA00C6
:10032000F091AB00309709F00995FF91EF91BF91E3
:10033000AF919F918F917F916F915F914F913F917D
:100340002F910F900FBE0F901F9018956D986B9A7C
:100350006A986F9A6898699877986C9A6E9A0895D7
:100360006D986B9A6A986F9A6C986E9A08958FB987
:10037000779BFECF8FB108958FB780688FBF0895A8
:100380008FB78F778FBF089585B7816085BF85B799
:100390008D7F85BF8BB780648BBF089585B78460E0
:1003A00085BF85B7877F85BF8BB780688BBF089572
:1003B0000895009721F09093AF008093AE000895C8
:1003C000009721F09093B1008093B00008951F92A0
:1003D0000F920FB60F9211242F933F934F935F9379
:1003E0006F937F938F939F93AF93BF93EF93FF93FD
:1003F000E091AE00F091AF00309709F00995FF91C0
:10040000EF91BF91AF919F918F917F916F915F918C
:100410004F913F912F910F900FBE0F901F90189505
:100420001F920F920FB60F9211242F933F934F9369
:100430005F936F937F938F939F93AF93BF93EF934C
:10044000FF93E091B000F091B100309709F0099569
:10045000FF91EF91BF91AF919F918F917F916F919C
:100460005F914F913F912F910F900FBE0F901F9072
:100470001895982F862F81508E3F80F0913049F04B
:10048000913028F0923039F0933041F406C06ABBC5
:10049000089567BB089564BB089561BB0895382F24
:1004A000883008F078C0613029F1613038F062306E
:1004B00009F43CC0633009F06EC053C0413059F4B8
:1004C0002AB381E090E002C0880F991F3A95E2F7C5
:1004D000282B2ABB0895442309F05DC02AB381E08C
:1004E00090E002C0880F991F3A95E2F78095822329
:1004F0008ABB0895413059F427B381E090E002C0EF
:10050000880F991F3A95E2F7282B27BB08954423BB
:1005100009F041C027B381E090E002C0880F991F25
:100520003A95E2F78095822387BB0895413059F4CC
:1005300024B381E090E002C0880F991F3A95E2F75A
:10054000282B24BB0895442331F524B381E090E0A7
:1005500002C0880F991F3A95E2F78095822384BBE9
:100560000895413059F421B381E090E002C0880F32
:10057000991F3A95E2F7282B21BB0895442359F49B
:1005800021B381E090E002C0880F991F3A95E2F70D
:100590008095822381BB0895813049F0813028F015
:1005A000823039F0833041F406C06BBB089568BBDC
:1005B000089565BB089562BB0895382F883008F010
:1005C00078C0613029F1613038F0623009F43CC004
:1005D000633009F06EC053C0413059F42BB381E051
:1005E00090E002C0880F991F3A95E2F7282B2BBBA9
:1005F0000895442309F05DC02BB381E090E002C070
:10060000880F991F3A95E2F7809582238BBB089556
:10061000413059F428B381E090E002C0880F991F5F
:100620003A95E2F7282B28BB0895442309F041C0EE
:1006300028B381E090E002C0880F991F3A95E2F755
:100640008095822388BB0895413059F425B381E019
:1006500090E002C0880F991F3A95E2F7282B25BB3E
:100660000895442331F525B381E090E002C0880F5E
:10067000991F3A95E2F78095822385BB0895413012
:1006800059F422B381E090E002C0880F991F3A9597
:10069000E2F7282B22BB0895442359F422B381E0CA
:1006A00090E002C0880F991F3A95E2F78095822367
:1006B00082BB0895FB016115710591F0813049F00D
:1006C000813028F0823039F0833051F407C089B38B
:1006D00003C086B301C083B38083089580B3808351
:1006E0000895282FFA014115510511F1883000F5C0
:1006F000613049F0613028F0623039F06330C1F484
:100700000EC089B303C086B301C083B390E002C0BA
:10071000959587952A95E2F781708083089580B337
:1007200090E002C0959587952A95E2F781708083C5
:100730000895382F8830A0F5613091F0613028F0AD
:100740006230C9F0633061F521C02BB381E090E0E5
:1007500002C0880F991F3A95E2F728272BBB08950E
:1007600028B381E090E002C0880F991F3A95E2F724
:10077000282728BB089525B381E090E002C0880FA8
:10078000991F3A95E2F7282725BB089522B381E007
:1007900090E002C0880F991F3A95E2F7282722BB04
:1007A0000895582F8150843008F050C0842F90E075
:1007B0008F709070052E02C0880F991F0A94E2F77F
:1007C000482F6130B9F0613030F0623011F16330A0
:1007D00009F03CC02DC08BB32FE030E002C0220FE7
:1007E000331F5A95E2F7209528232BBB8BB3482B58
:1007F0004BBB089588B32FE030E002C0220F331FB7
:100800005A95E2F72095282328BB88B3482B48BB8C
:10081000089585B32FE030E002C0220F331F5A95B0
:10082000E2F72095282325BB85B3482B45BB0895C7
:1008300082B32FE030E002C0220F331F5A95E2F757
:100840002095282322BB82B3482B42BB08953E9AB1
:100850003F9830983198329A3D98379A089597B1D9
:10086000907E97B997B18F71892B87B9369A349B4F
:10087000FECF24B135B1C90108958091B6008F5FD4
:100880008093B600089582E062E041E00E944F024A
:1008900081E063E041E00E944F0282E063E040E0DB
:1008A0000E944F0284EF91E020E931E0F901319795
:1008B000F1F70197D9F70E94C40184E794E00E9400
:1008C000D9018DE394E00E941F01089581E063E067
:1008D00041E00E94DD0280E58A95F1F781E063E066
:1008E00040E00E94DD02089580919000813079F40B
:1008F00082E062E041E00E94DD0280E00E941B0194
:100900000E940B011092B600109290000895882367
:10091000E9F422B79091B60080E0820F911D909388
:10092000B3008093B2000E944D018091B20090917B
:10093000B3009093B5008093B40082E062E040E0A1
:100940000E94DD0281E08093900012BE0895CF9353
:10095000DF93EC016A3008F07BC06430E9F1653068
:1009600050F46130F1F06130C0F0623041F1633039
:1009700009F06EC028C0673009F43FC0683030F419
:10098000653071F1663009F063C033C0683009F436
:1009900047C0693009F05CC047C08B816A8140E084
:1009A00003C08B816A8141E00E94DD028D816C81F0
:1009B00040E00E94DD028F816E8140E02BC08B8180
:1009C0006A8140E003C08B816A8141E00E94DD02C0
:1009D0008D816C8141E0EDCF8B816A8140E003C065
:1009E0008B816A8141E00E94DD028D816C8140E053
:1009F0000CC08B816A8140E003C08B816A8141E039
:100A00000E94DD028D816C8141E00E94DD028F81B8
:100A10006E8141E00E94DD028985688540E016C054
:100A20008B816A8140E003C08B816A8141E00E9432
:100A3000DD028D816C8140E00E94DD028F816E813C
:100A400040E00E94DD028985688541E00E94DD0268
:100A5000DF91CF910895FC01613031F48181608193
:100A600041E00E94DD020895662329F481816081BE
:100A700040E00E94DD0208950F931F938C01FC015A
:100A80008181608141E00E944F02F801838162818F
:100A900041E00E944F02F8018581648141E00E949B
:100AA0004F02F8018781668141E00E944F02F80100
:100AB0008185608541E00E944F021F910F9108954A
:100AC0008FB58E7F8FBD8FB582608FBD8EB58061F3
:100AD0008EBD8EB588608EBD8FB580688FBD8FB599
:100AE0008F7B8FBD8EB581608EBD8EB582608EBDD1
:100AF0008EB58B7F8EBD089597BD86BD08959BBD35
:100B00008ABD089587E890E09BBD8ABD80E197E2A9
:100B100020E931E0F9013197F1F70197D9F781E840
:100B200091E09BBD8ABD80E197E220E931E0F901C7
:100B30003197F1F70197D9F78BE792E09BBD8ABD1A
:100B400080E197E220E931E0F9013197F1F701976F
:100B5000D9F781E891E09BBD8ABD80E197E220E969
:100B600031E0F9013197F1F70197D9F7089581E85C
:100B700091E09BBD8ABD089587E890E09BBD8ABD4A
:100B800008958BE792E09BBD8ABD089588E893E1C4
:100B900097BD86BD0E94600585E063E041E00E944C
:100BA0004F0208952F923F924F925F927F928F92C1
:100BB0009F92AF92BF92CF92DF92EF92FF920F93EC
:100BC0001F93DF93CF93CDB7DEB729970FB6F89475
:100BD000DEBF0FBECDBF1982DE011296E1EAF0E062
:100BE00088E001900D928150E1F78091B70080314B
:100BF00021F481E060E00E94330877247A94CC24C9
:100C0000DD244E010894811C911C30E4232E3CE924
:100C1000332E2AE0422E512C4C0E5D1EE2E0F0E015
:100C2000EC0FFD1FEC0DFD1DA0808A2D63E040E060
:100C30000E94DD0296E0E92EF12CEC0EFD1E8601ED
:100C4000000F111F000F111F0F561F4FF701B0802B
:100C50008B2D62E0A4010E9471038981882399F49D
:100C6000F80170808091B7008F5F8093B70005C056
:100C70008B2D62E0A4010E94710389818823C1F356
:100C8000C1010197F1F70894E11CF11C0F5F1F4FA0
:100C9000E414F504D9F68A2D63E041E00E94DD02F8
:100CA0000894C11CD11CF4E0CF16D10409F0B6CFD2
:100CB000872D29960FB6F894DEBF0FBECDBFCF911A
:100CC000DF911F910F91FF90EF90DF90CF90BF9039
:100CD000AF909F908F907F905F904F903F902F901C
:100CE000089580E063E041E00E944F0281E063E00C
:100CF00041E00E944F0284E063E041E00E944F0225
:100D000085E063E041E00E944F0283E062E040E062
:100D10000E944F0284E062E040E00E944F0285E0C2
:100D200062E040E00E944F0286E062E040E00E9404
:100D30004F0283E062E041E00E94DD0284E062E075
:100D400041E00E94DD0285E062E041E00E94DD02B8
:100D500086E062E041E00E94DD0280E063E041E085
:100D60000E94DD0281E063E041E00E94DD0284E058
:100D700063E041E00E94DD0285E063E041E00E9423
:100D8000DD02089583E062E040E00E94DD0284E03D
:100D900062E040E00E94DD0285E062E040E00E9407
:100DA000DD0286E062E040E00E94DD02089586E018
:100DB00062E041E00E94DD0285E062E040E00E94E6
:100DC000DD02089585E062E041E00E94DD0286E0F8
:100DD00062E040E00E94DD02089584E062E040E0CD
:100DE0000E94DD0283E062E041E00E94DD0208959E
:100DF0000E94ED060E94E20608950E94ED060E9400
:100E0000D706089583E062E040E00E94DD0284E0BE
:100E100062E041E00E94DD0208950E94D7060E9430
:100E2000020708950E9402070E94E206089584E0E6
:100E300063E041E00E944F0280E063E041E00E94F5
:100E40004F0283E062E041E00E944F0284E062E0F2
:100E500041E00E944F0285E062E041E00E944F02C3
:100E600086E062E041E00E944F0284E063E041E0FE
:100E70000E94DD0280E063E041E00E94DD0208950F
:100E8000EF92FF921F93182F82E061E040E00E94F2
:100E9000DD0281E061E041E00E94DD02412F4295E8
:100EA0004F7084E060E00E94D10383E061E041E0A4
:100EB0000E94DD0280E4E82E8FE1F82EC701019741
:100EC000F1F783E061E040E00E94DD0284E060E051
:100ED000412F0E94D10383E061E041E00E94DD02E6
:100EE000C7010197F1F783E061E040E00E94DD0275
:100EF0001F91FF90EF9008958F929F92BF92CF9293
:100F0000DF92EF92FF920F931F93DF93CF93CDB7B2
:100F1000DEB764970FB6F894DEBF0FBECDBF9B015E
:100F2000AC01611571058105910521F480E30E94F2
:100F3000400738C0FE01319684E1DF011D928A9599
:100F4000E9F769017A01BB244F0184010B0D111DE2
:100F5000C701B6012AE030E040E050E00E94000AFC
:100F6000605DF8016083C701B6012AE030E040E02F
:100F700050E00E94000AC901DA016C017D01B394BE
:100F8000C114D104E104F10401F784010B0D111D1A
:100F900004C0D8018C910E944007015010400C17EA
:100FA0001D07B9F764960FB6F894DEBF0FBECDBF2C
:100FB000CF91DF911F910F91FF90EF90DF90CF9035
:100FC000BF909F908F9008951F93CF93DF93EC0174
:100FD00010E003C00E9440071F5FFE01E10FF11DFA
:100FE00080818823B9F7DF91CF911F910895EF9207
:100FF000FF921F93182F82E061E040E00E94DD0223
:1010000081E061E040E00E94DD02412F42954F7097
:1010100084E060E00E94D10383E061E041E00E944F
:10102000DD0290E4E92E9FE1F92EC7010197F1F767
:1010300083E061E040E00E94DD0284E060E0412F57
:101040000E94D10383E061E041E00E94DD02C7011C
:101050000197F1F783E061E040E00E94DD021F911B
:10106000FF90EF900895823068F4603158F488233F
:1010700029F4862F80580E94F7070895862F805400
:101080000E94F70708950F931F938EE591E020E9E2
:1010900031E0F9013197F1F70197D9F784E060E089
:1010A00041E00E944F0285E060E041E00E944F0273
:1010B00086E060E041E00E944F0287E060E041E0AE
:1010C0000E944F0281E061E041E00E944F0282E015
:1010D00061E041E00E944F0283E061E041E00E9454
:1010E0004F0284E060E042E00E94D10383E061E0CF
:1010F00041E00E94DD0200E41FE1C8010197F1F721
:1011000083E061E040E00E94DD0288E20E94F70790
:1011100080EA9FE00197F1F78FE00E94F70781E0F6
:101120000E94F707C8010197F1F786E00E94F707D0
:101130001F910F9108950F931F93DF93CF930F92F9
:10114000CDB7DEB7182F062F0E94A800812F80652B
:101150000E94B900802F0E94E0000E94A800CE01EA
:1011600001960E94EF000E94000189810F90CF91AB
:10117000DF911F910F910895FF920F931F93182FE6
:10118000062FF42E0E94A800812F80650E94B900CE
:10119000802F0E94E0008F2D0E94E0000E9400013D
:1011A0001F910F91FF900895EF92FF920F931F935D
:1011B000CF93DF930E94BC010E9443040E94430826
:1011C0000E94C6050E9417071092B80000E911E0BE
:1011D00093E0F92E82E0E82E8091B800813009F486
:1011E00062C0813030F0823009F480C08330B1F7C2
:1011F000A2C081E00E94F70780E690E00E94E40729
:101200000E94B7050E9466048CEB92E0F8013197CA
:10121000F1F70197D9F78091B4009091B50001974B
:10122000889708F03DC00E94C2060E94BC0580E17C
:1012300097E2F8013197F1F70197D9F70E94660418
:101240008CEB92E0F8013197F1F70197D9F7C09153
:10125000B400D091B50080E197E2F8013197F1F741
:101260000197D9F70E94C10580E197E2F801319713
:10127000F1F70197D9F70E9466048CEB92E0F80130
:101280003197F1F70197D9F72091B4003091B5006B
:1012900080E197E2F8013197F1F70197D9F79EC005
:1012A0000E94120799CF81E00E94F7078DE690E037
:1012B0000E94E4070E94F8068CE49DE1F801319752
:1012C000F1F70197D9F70E94C20688EC90E0F80187
:1012D0003197F1F70197D9F70E94B70580E197E2BE
:1012E000F8013197F1F70197D9F722C081E00E9408
:1012F000F70788E790E00E94E4070E940D078CE45E
:101300009DE1F8013197F1F70197D9F70E94C206E4
:1013100088EC90E0F8013197F1F70197D9F70E9436
:10132000B70580E197E2F8013197F1F70197D9F716
:101330001092B80051CF81E00E94F70782E890E058
:101340000E94E4070E94FD068CE49DE1F8013197BC
:10135000F1F70197D9F70E94C20688EC90E0F801F6
:101360003197F1F70197D9F70E94BC0580E197E228
:10137000F8013197F1F70197D9F70E9466048CEBD9
:1013800092E0F8013197F1F70197D9F7C091B400D5
:10139000D091B50080E197E2F8013197F1F701971C
:1013A000D9F70E94C10580E197E2F8013197F1F782
:1013B0000197D9F70E9466048CEB92E0F80131970F
:1013C000F1F70197D9F72091B4003091B50080E191
:1013D00097E2F8013197F1F70197D9F72197A8978C
:1013E00020F081E08093B800F7CE215030402832C1
:1013F000310518F0E092B800EFCEF092B800ECCED4
:10140000A1E21A2EAA1BBB1BFD010DC0AA1FBB1F08
:10141000EE1FFF1FA217B307E407F50720F0A21B7A
:10142000B30BE40BF50B661F771F881F991F1A94E7
:1014300069F760957095809590959B01AC01BD0111
:08144000CF010895F894FFCFDD
:101448004469723A20466F72776172640044697227
:101458003A205269676874004469723A204C65669C
:1014680074004469723A204261636B776172640068
:10147800013134372A323538303336392341424343
:0A14880044000104050304050600FA
:00000001FF
